:1000000010C02AC029C0ADC027C026C025C024C04A
:10001000D3C022C021C020C01FC062C01DC0F9C112
:1000200017C211241FBECFE5D1E0DEBFCDBF10E067
:10003000A0E6B0E0EEEBF5E002C005900D92A2362E
:10004000B107D9F710E0A2E6B0E001C01D92A039D7
:10005000B107E1F7D8D0B1C2D3CF87B3836087BBF4
:10006000C098C19A089510BE13BE80B7806280BF49
:1000700080B7816080BF83B7816083BF0895EF92AE
:10008000FF920F931F93CF93DF93182F029800E3F3
:1000900084E0E82E89E2F82EC0E1D7E20BC0E3DF6E
:1000A0000CBFC7010197F1F713BEDF98CE0101978E
:1000B000F1F71150112399F7029ADF91CF911F9117
:1000C0000F91FF90EF90089585B7877E886085BF78
:1000D00085B7806285BF889585B78F7D85BF089578
:1000E0001F920F920FB60F9211240F900FBE0F9018
:1000F0001F90189581E087B9369AE6DF24B130E089
:1001000045B1942F80E0822B932B2FEF33E0281BF7
:10011000390BC9010895029816BE82E480BF8EEFA4
:1001200082BF81E083BFE6DF80E197E229E130E032
:10013000F9013197F1F70197D9F7DCDF13BE10BE53
:10014000C298C298029A089582EA87B9369ABCDFAB
:1001500024B130E045B1942F80E0282B392BC90120
:1001600008951F920F920FB60F9211248F939F93B1
:100170008BB78F7D8BBF1EBC8CB59DB590936500F2
:100180008093640080916400909165009093630077
:10019000809362008BB78F7D8BBF1EBC80B58E7F36
:1001A00080BD609881E0809360009F918F910F9057
:1001B0000FBE0F901F9018951F920F920FB60F92BF
:1001C00011248F939F938FEF9FEF909365008093FF
:1001D0006400809164009091650090936300809327
:1001E00062008BB78F7D8BBF1EBC80B58E7F80BDBC
:1001F000609881E0809360009F918F910F900FBE77
:100200000F901F901895EF92FF921F93CF93DF935B
:1002100014BE88E10FB6F89481BD11BC0FBED89A08
:10022000D898DA9ADA98DB9ADB98D79ADF98B89A56
:10023000C098B99AC198BA9AC298329A339A379AA2
:1002400081E090E0A4D187FD8FE79FD080E886BD54
:1002500082E086BD789416BE82E480BF8EEF82BFB6
:1002600081E083BF99E1E92EF12CC4EDD0E3C8D041
:100270008823E9F3B2D0982F882311F44CDF4BC0C8
:10028000813041F4AAD0682F87FDF1CF81E090E062
:1002900086D1EDCF823029F481E090E078D18CD006
:1002A000E6CF8330E9F480916000882301F3609AFF
:1002B00087B3836087BBC098C19AC09AC198B89829
:1002C00088B38C7F88BB1DBC1CBC1FBC9EBD80B589
:1002D000816080BD8BB780628BBF10926000C7CFFA
:1002E0008430A9F48BB78F7D8BBF1EBC80916200D8
:1002F00090916300892F60D080916200909163009B
:100300005BD08BB780628BBF83E08EBDB0CF853072
:1003100039F41ADF19DF182F892F4ED0812FBFCF64
:10032000863051F428E088E190E00FB6F894A89563
:1003300081BD0FBE21BDFFCF873011F481E2AFCF69
:10034000883081F489E09BDE8CEA9DE0F7013197EB
:10035000F1F70197D9F781E092DECE010197F1F72D
:1003600081E003C0893019F483E089DE80CF8A30D0
:1003700011F473DE7CCF8B3009F079CF87B38C7F9B
:1003800087BB88B38C7F88BB72CF10927B001092A2
:100390007A0010928D0010928C008093660010926B
:1003A00069008AB380658ABBDC9ADE9AD69888EAAF
:1003B0008DB980EF8EB90895282F90918C009F5FA2
:1003C0009F7080918D009817E1F3E92FF0E0E458D9
:1003D000FF4F208390938C00089590917A00809134
:1003E0007B009817D1F380917B008F5F8F70809393
:1003F0007B00E0917B00F0E0E659FF4F808108959B
:1004000090917A0080917B0020E0981321E0822F68
:1004100008951F920F920FB60F9211248F9310928E
:10042000680010926700D698CC9B02C0CE9BFCCF90
:10043000CE9B02C0CC9902C088EF01C088EA8DB97A
:1004400080EF8EB98F910F900FBE0F901F9018956F
:100450001F920F920FB60F9211242F933F934F9339
:100460005F936F937F938F939F93AF93BF93EF931C
:10047000FF9380916700909168008230910509F4A4
:100480004DC08330910530F4009779F0019709F061
:100490006DC026C08430910509F449C084309105AF
:1004A000C8F0059709F062C04AC08FB1882331F0C7
:1004B0008FB1869590916600891779F4E0918E004E
:1004C000F0918F00309709F00995789B45C081E045
:1004D00090E044C08FB1882319F088EA8DB91CC020
:1004E00090918C0080918D00981769F080918D001B
:1004F0008F5F8F7080938D00E0918D00F0E0E45865
:10050000FF4F808101C08FEF8FB982E090E0909320
:10051000680080936700D69A80E727C083E090E068
:100520009093680080936700D6981FB81DC085E03F
:1005300090E09093680080936700D698EDCF80910B
:100540007A008F5F8F7080937A00E0917A008FB18C
:10055000F0E0E659FF4F808384E090E090936800DC
:10056000809367001FB8D69A8EE78EB9FF91EF91FE
:10057000BF91AF919F918F917F916F915F914F91BB
:100580003F912F910F900FBE0F901F901895E199FA
:10059000FECF1FBA8EBBE09A99278DB30895262F00
:1005A000E199FECF1CBA1FBA8EBB2DBB0FB6F894D3
:0E05B000E29AE19A0FBE01960895F894FFCFEB
:0205BE0001003A
:00000001FF
